{
  "contractName": "TweetFactory",
  "abi": [
    {
      "anonymous": false,
      "inputs": [
        {
          "indexed": false,
          "internalType": "uint256",
          "name": "tweetId",
          "type": "uint256"
        },
        {
          "indexed": false,
          "internalType": "string",
          "name": "message",
          "type": "string"
        },
        {
          "indexed": false,
          "internalType": "string",
          "name": "author",
          "type": "string"
        },
        {
          "indexed": false,
          "internalType": "uint256",
          "name": "createdAt",
          "type": "uint256"
        }
      ],
      "name": "TweetAdded",
      "type": "event"
    },
    {
      "inputs": [
        {
          "internalType": "uint256",
          "name": "",
          "type": "uint256"
        }
      ],
      "name": "tweets",
      "outputs": [
        {
          "internalType": "uint256",
          "name": "id",
          "type": "uint256"
        },
        {
          "internalType": "string",
          "name": "message",
          "type": "string"
        },
        {
          "internalType": "string",
          "name": "author",
          "type": "string"
        },
        {
          "internalType": "uint256",
          "name": "createdAt",
          "type": "uint256"
        }
      ],
      "stateMutability": "view",
      "type": "function"
    },
    {
      "inputs": [
        {
          "internalType": "string",
          "name": "_message",
          "type": "string"
        },
        {
          "internalType": "string",
          "name": "_author",
          "type": "string"
        },
        {
          "internalType": "uint256",
          "name": "_createdAt",
          "type": "uint256"
        }
      ],
      "name": "createTweet",
      "outputs": [],
      "stateMutability": "nonpayable",
      "type": "function"
    },
    {
      "inputs": [
        {
          "internalType": "uint256",
          "name": "id",
          "type": "uint256"
        }
      ],
      "name": "getTweet",
      "outputs": [
        {
          "components": [
            {
              "internalType": "uint256",
              "name": "id",
              "type": "uint256"
            },
            {
              "internalType": "string",
              "name": "message",
              "type": "string"
            },
            {
              "internalType": "string",
              "name": "author",
              "type": "string"
            },
            {
              "internalType": "uint256",
              "name": "createdAt",
              "type": "uint256"
            }
          ],
          "internalType": "struct TweetFactory.Tweet",
          "name": "",
          "type": "tuple"
        }
      ],
      "stateMutability": "view",
      "type": "function"
    }
  ],
  "bytecode": "0x608060405234801561001057600080fd5b506109be806100206000396000f3fe608060405234801561001057600080fd5b50600436106100415760003560e01c80633af3527414610046578063c3ad5ecb14610062578063e8d857b014610092575b600080fd5b610060600480360381019061005b91906105df565b6100c5565b005b61007c6004803603810190610077919061065e565b6101ad565b6040516100899190610781565b60405180910390f35b6100ac60048036038101906100a7919061065e565b610347565b6040516100bc94939291906107a3565b60405180910390f35b60008080549050905060006040518060800160405280838152602001868152602001858152602001848152509080600181540180825580915050600190039060005260206000209060040201600090919091909150600082015181600001556020820151816001019080519060200190610140929190610497565b50604082015181600201908051906020019061015d929190610497565b506060820151816003015550507f015d23926fea45a754650cd5efb8aaaa596720f3ae95adcfcb934dbd8892148b8185858560405161019f94939291906107a3565b60405180910390a150505050565b6101b561051d565b600082815481106101ef577f4e487b7100000000000000000000000000000000000000000000000000000000600052603260045260246000fd5b906000526020600020906004020160405180608001604052908160008201548152602001600182018054610222906108d0565b80601f016020809104026020016040519081016040528092919081815260200182805461024e906108d0565b801561029b5780601f106102705761010080835404028352916020019161029b565b820191906000526020600020905b81548152906001019060200180831161027e57829003601f168201915b505050505081526020016002820180546102b4906108d0565b80601f01602080910402602001604051908101604052809291908181526020018280546102e0906108d0565b801561032d5780601f106103025761010080835404028352916020019161032d565b820191906000526020600020905b81548152906001019060200180831161031057829003601f168201915b505050505081526020016003820154815250509050919050565b6000818154811061035757600080fd5b9060005260206000209060040201600091509050806000015490806001018054610380906108d0565b80601f01602080910402602001604051908101604052809291908181526020018280546103ac906108d0565b80156103f95780601f106103ce576101008083540402835291602001916103f9565b820191906000526020600020905b8154815290600101906020018083116103dc57829003601f168201915b50505050509080600201805461040e906108d0565b80601f016020809104026020016040519081016040528092919081815260200182805461043a906108d0565b80156104875780601f1061045c57610100808354040283529160200191610487565b820191906000526020600020905b81548152906001019060200180831161046a57829003601f168201915b5050505050908060030154905084565b8280546104a3906108d0565b90600052602060002090601f0160209004810192826104c5576000855561050c565b82601f106104de57805160ff191683800117855561050c565b8280016001018555821561050c579182015b8281111561050b5782518255916020019190600101906104f0565b5b5090506105199190610545565b5090565b6040518060800160405280600081526020016060815260200160608152602001600081525090565b5b8082111561055e576000816000905550600101610546565b5090565b600061057561057084610827565b6107f6565b90508281526020810184848401111561058d57600080fd5b61059884828561088e565b509392505050565b600082601f8301126105b157600080fd5b81356105c1848260208601610562565b91505092915050565b6000813590506105d981610971565b92915050565b6000806000606084860312156105f457600080fd5b600084013567ffffffffffffffff81111561060e57600080fd5b61061a868287016105a0565b935050602084013567ffffffffffffffff81111561063757600080fd5b610643868287016105a0565b9250506040610654868287016105ca565b9150509250925092565b60006020828403121561067057600080fd5b600061067e848285016105ca565b91505092915050565b600061069282610857565b61069c8185610862565b93506106ac81856020860161089d565b6106b581610960565b840191505092915050565b60006106cb82610857565b6106d58185610873565b93506106e581856020860161089d565b6106ee81610960565b840191505092915050565b60006080830160008301516107116000860182610763565b50602083015184820360208601526107298282610687565b915050604083015184820360408601526107438282610687565b91505060608301516107586060860182610763565b508091505092915050565b61076c81610884565b82525050565b61077b81610884565b82525050565b6000602082019050818103600083015261079b81846106f9565b905092915050565b60006080820190506107b86000830187610772565b81810360208301526107ca81866106c0565b905081810360408301526107de81856106c0565b90506107ed6060830184610772565b95945050505050565b6000604051905081810181811067ffffffffffffffff8211171561081d5761081c610931565b5b8060405250919050565b600067ffffffffffffffff82111561084257610841610931565b5b601f19601f8301169050602081019050919050565b600081519050919050565b600082825260208201905092915050565b600082825260208201905092915050565b6000819050919050565b82818337600083830152505050565b60005b838110156108bb5780820151818401526020810190506108a0565b838111156108ca576000848401525b50505050565b600060028204905060018216806108e857607f821691505b602082108114156108fc576108fb610902565b5b50919050565b7f4e487b7100000000000000000000000000000000000000000000000000000000600052602260045260246000fd5b7f4e487b7100000000000000000000000000000000000000000000000000000000600052604160045260246000fd5b6000601f19601f8301169050919050565b61097a81610884565b811461098557600080fd5b5056fea26469706673582212207c9438d7b0961e0c350b93c10ee7a15fd852e5c7f73373784ee1b82aa07acbc364736f6c63430008000033",
  "immutableReferences": {},
  "source": "// SPDX-License-Identifier: MIT\npragma solidity >=0.4.22 <0.9.0;\npragma experimental ABIEncoderV2;\n\ncontract TweetFactory {\n    event TweetAdded(uint tweetId, string message, string author, uint256 createdAt);\n\n    struct Tweet {\n        uint id;\n        string message;\n        string author;\n        uint256 createdAt;\n    }\n\n    Tweet[] public tweets;\n\n    function createTweet(string memory _message, string memory _author, uint256 _createdAt) public {\n        uint tweetId = tweets.length;\n        tweets.push(Tweet(tweetId, _message, _author, _createdAt));\n        emit TweetAdded(tweetId, _message, _author, _createdAt);\n    }\n\n    function getTweet(uint id) public view returns (Tweet memory) {\n        return tweets[id];\n    }\n}",
  "sourcePath": "/Users/Keith/Documents/Git/eth-twitter/contracts/TweetFactory.sol",
  "compiler": {
    "name": "solc",
    "version": "0.8.0+commit.c7dfd78e.Emscripten.clang"
  },
  "schemaVersion": "3.3.3",
  "updatedAt": "2021-02-17T08:02:55.029Z",
  "devdoc": {
    "kind": "dev",
    "methods": {},
    "version": 1
  },
  "userdoc": {
    "kind": "user",
    "methods": {},
    "version": 1
  }
}