{
  "contractName": "TweetFactory",
  "abi": [
    {
      "anonymous": false,
      "inputs": [
        {
          "indexed": false,
          "internalType": "uint256",
          "name": "tweetId",
          "type": "uint256"
        },
        {
          "indexed": false,
          "internalType": "string",
          "name": "message",
          "type": "string"
        },
        {
          "indexed": false,
          "internalType": "string",
          "name": "author",
          "type": "string"
        }
      ],
      "name": "TweetAdded",
      "type": "event"
    },
    {
      "anonymous": false,
      "inputs": [
        {
          "indexed": false,
          "internalType": "uint256",
          "name": "oldTweetId",
          "type": "uint256"
        }
      ],
      "name": "TweetDeleted",
      "type": "event"
    },
    {
      "anonymous": false,
      "inputs": [
        {
          "indexed": false,
          "internalType": "uint256",
          "name": "tweetId",
          "type": "uint256"
        },
        {
          "indexed": false,
          "internalType": "string",
          "name": "message",
          "type": "string"
        },
        {
          "indexed": false,
          "internalType": "string",
          "name": "author",
          "type": "string"
        }
      ],
      "name": "TweetUpdated",
      "type": "event"
    },
    {
      "inputs": [
        {
          "internalType": "uint256",
          "name": "",
          "type": "uint256"
        }
      ],
      "name": "tweets",
      "outputs": [
        {
          "internalType": "uint256",
          "name": "id",
          "type": "uint256"
        },
        {
          "internalType": "string",
          "name": "message",
          "type": "string"
        },
        {
          "internalType": "string",
          "name": "author",
          "type": "string"
        }
      ],
      "stateMutability": "view",
      "type": "function",
      "constant": true
    },
    {
      "inputs": [
        {
          "internalType": "string",
          "name": "a",
          "type": "string"
        },
        {
          "internalType": "string",
          "name": "b",
          "type": "string"
        }
      ],
      "name": "compareStrings",
      "outputs": [
        {
          "internalType": "bool",
          "name": "",
          "type": "bool"
        }
      ],
      "stateMutability": "pure",
      "type": "function",
      "constant": true
    },
    {
      "inputs": [
        {
          "internalType": "uint256",
          "name": "id",
          "type": "uint256"
        }
      ],
      "name": "requireValidTweetId",
      "outputs": [],
      "stateMutability": "view",
      "type": "function",
      "constant": true
    },
    {
      "inputs": [
        {
          "internalType": "string",
          "name": "_message",
          "type": "string"
        },
        {
          "internalType": "string",
          "name": "_author",
          "type": "string"
        }
      ],
      "name": "createTweet",
      "outputs": [],
      "stateMutability": "nonpayable",
      "type": "function"
    },
    {
      "inputs": [
        {
          "internalType": "uint256",
          "name": "id",
          "type": "uint256"
        }
      ],
      "name": "getTweet",
      "outputs": [
        {
          "components": [
            {
              "internalType": "uint256",
              "name": "id",
              "type": "uint256"
            },
            {
              "internalType": "string",
              "name": "message",
              "type": "string"
            },
            {
              "internalType": "string",
              "name": "author",
              "type": "string"
            }
          ],
          "internalType": "struct TweetFactory.Tweet",
          "name": "",
          "type": "tuple"
        }
      ],
      "stateMutability": "view",
      "type": "function",
      "constant": true
    },
    {
      "inputs": [],
      "name": "getTweets",
      "outputs": [
        {
          "components": [
            {
              "internalType": "uint256",
              "name": "id",
              "type": "uint256"
            },
            {
              "internalType": "string",
              "name": "message",
              "type": "string"
            },
            {
              "internalType": "string",
              "name": "author",
              "type": "string"
            }
          ],
          "internalType": "struct TweetFactory.Tweet[]",
          "name": "",
          "type": "tuple[]"
        }
      ],
      "stateMutability": "view",
      "type": "function",
      "constant": true
    },
    {
      "inputs": [
        {
          "internalType": "uint256",
          "name": "id",
          "type": "uint256"
        },
        {
          "internalType": "string",
          "name": "_author",
          "type": "string"
        }
      ],
      "name": "deleteTweet",
      "outputs": [],
      "stateMutability": "nonpayable",
      "type": "function"
    },
    {
      "inputs": [
        {
          "internalType": "uint256",
          "name": "id",
          "type": "uint256"
        },
        {
          "internalType": "string",
          "name": "_message",
          "type": "string"
        },
        {
          "internalType": "string",
          "name": "_author",
          "type": "string"
        }
      ],
      "name": "updateTweet",
      "outputs": [],
      "stateMutability": "nonpayable",
      "type": "function"
    }
  ],
  "bytecode": "0x608060405260018055600060025534801561001957600080fd5b5061179d806100296000396000f3fe608060405234801561001057600080fd5b50600436106100885760003560e01c8063bed34bba1161005b578063bed34bba146100fd578063c3ad5ecb1461012d578063e8d857b01461015d578063fc86741f1461018f57610088565b80630b0c061a1461008d578063528dd767146100a957806363f33441146100c55780638cd14d30146100e1575b600080fd5b6100a760048036038101906100a29190610f0a565b6101ad565b005b6100c360048036038101906100be9190610f87565b6101f4565b005b6100df60048036038101906100da9190610f33565b610454565b005b6100fb60048036038101906100f69190610e9e565b61068a565b005b61011760048036038101906101129190610e9e565b610771565b6040516101249190611392565b60405180910390f35b61014760048036038101906101429190610f0a565b6107ca565b604051610154919061142d565b60405180910390f35b61017760048036038101906101729190610f0a565b61097a565b6040516101869392919061146a565b60405180910390f35b610197610ab4565b6040516101a49190611370565b60405180910390f35b80600154116101f1576040517f08c379a00000000000000000000000000000000000000000000000000000000081526004016101e8906113ed565b60405180910390fd5b50565b6101fd836101ad565b60008060008581526020019081526020016000206040518060600160405290816000820154815260200160018201805461023690611637565b80601f016020809104026020016040519081016040528092919081815260200182805461026290611637565b80156102af5780601f10610284576101008083540402835291602001916102af565b820191906000526020600020905b81548152906001019060200180831161029257829003601f168201915b505050505081526020016002820180546102c890611637565b80601f01602080910402602001604051908101604052809291908181526020018280546102f490611637565b80156103415780601f1061031657610100808354040283529160200191610341565b820191906000526020600020905b81548152906001019060200180831161032457829003601f168201915b505050505081525050905061035a816040015183610771565b610399576040517f08c379a0000000000000000000000000000000000000000000000000000000008152600401610390906113cd565b60405180910390fd5b60006040518060600160405280868152602001858152602001848152509050806000808781526020019081526020016000206000820151816000015560208201518160010190805190602001906103f1929190610d1d565b50604082015181600201908051906020019061040e929190610d1d565b509050507f6b49ad39a2eb3f76210be1339e47aa8be331d98bf8d6785d3098e5bf45e0dfd28585856040516104459392919061146a565b60405180910390a15050505050565b61045d826101ad565b60008060008481526020019081526020016000206040518060600160405290816000820154815260200160018201805461049690611637565b80601f01602080910402602001604051908101604052809291908181526020018280546104c290611637565b801561050f5780601f106104e45761010080835404028352916020019161050f565b820191906000526020600020905b8154815290600101906020018083116104f257829003601f168201915b5050505050815260200160028201805461052890611637565b80601f016020809104026020016040519081016040528092919081815260200182805461055490611637565b80156105a15780601f10610576576101008083540402835291602001916105a1565b820191906000526020600020905b81548152906001019060200180831161058457829003601f168201915b50505050508152505090506105ba816040015183610771565b6105f9576040517f08c379a00000000000000000000000000000000000000000000000000000000081526004016105f0906113ad565b60405180910390fd5b6000808481526020019081526020016000206000808201600090556001820160006106249190610da3565b6002820160006106349190610da3565b5050600260008154809291906106499061160d565b91905055507fcff984d3d6983751ef01f1bad6665f0a9ab887ed70e453a3e9d01009d82c9fd18360405161067d919061144f565b60405180910390a1505050565b60006001600081548092919061069f90611669565b9190505590506040518060600160405280828152602001848152602001838152506000808381526020019081526020016000206000820151816000015560208201518160010190805190602001906106f8929190610d1d565b506040820151816002019080519060200190610715929190610d1d565b509050506002600081548092919061072c90611669565b91905055507f5e344bca248916431466b4777e600d3a9bbebc21745f720d370374225168ad9e8184846040516107649392919061146a565b60405180910390a1505050565b6000816040516020016107849190611359565b60405160208183030381529060405280519060200120836040516020016107ab9190611359565b6040516020818303038152906040528051906020012014905092915050565b6107d2610de3565b6107db826101ad565b60008060008481526020019081526020016000206040518060600160405290816000820154815260200160018201805461081490611637565b80601f016020809104026020016040519081016040528092919081815260200182805461084090611637565b801561088d5780601f106108625761010080835404028352916020019161088d565b820191906000526020600020905b81548152906001019060200180831161087057829003601f168201915b505050505081526020016002820180546108a690611637565b80601f01602080910402602001604051908101604052809291908181526020018280546108d290611637565b801561091f5780601f106108f45761010080835404028352916020019161091f565b820191906000526020600020905b81548152906001019060200180831161090257829003601f168201915b50505050508152505090506000816000015111610971576040517f08c379a00000000000000000000000000000000000000000000000000000000081526004016109689061140d565b60405180910390fd5b80915050919050565b60006020528060005260406000206000915090508060000154908060010180546109a390611637565b80601f01602080910402602001604051908101604052809291908181526020018280546109cf90611637565b8015610a1c5780601f106109f157610100808354040283529160200191610a1c565b820191906000526020600020905b8154815290600101906020018083116109ff57829003601f168201915b505050505090806002018054610a3190611637565b80601f0160208091040260200160405190810160405280929190818152602001828054610a5d90611637565b8015610aaa5780601f10610a7f57610100808354040283529160200191610aaa565b820191906000526020600020905b815481529060010190602001808311610a8d57829003601f168201915b5050505050905083565b6060600060025467ffffffffffffffff811115610afa577f4e487b7100000000000000000000000000000000000000000000000000000000600052604160045260246000fd5b604051908082528060200260200182016040528015610b3357816020015b610b20610de3565b815260200190600190039081610b185790505b50905060008060018054610b479190611581565b90505b6000811115610d1457600080600083815260200190815260200160002060405180606001604052908160008201548152602001600182018054610b8c90611637565b80601f0160208091040260200160405190810160405280929190818152602001828054610bb890611637565b8015610c055780601f10610bda57610100808354040283529160200191610c05565b820191906000526020600020905b815481529060010190602001808311610be857829003601f168201915b50505050508152602001600282018054610c1e90611637565b80601f0160208091040260200160405190810160405280929190818152602001828054610c4a90611637565b8015610c975780601f10610c6c57610100808354040283529160200191610c97565b820191906000526020600020905b815481529060010190602001808311610c7a57829003601f168201915b50505050508152505090506000816000015114610d005780848480610cbb90611669565b955081518110610cf4577f4e487b7100000000000000000000000000000000000000000000000000000000600052603260045260246000fd5b60200260200101819052505b508080610d0c9061160d565b915050610b4a565b50819250505090565b828054610d2990611637565b90600052602060002090601f016020900481019282610d4b5760008555610d92565b82601f10610d6457805160ff1916838001178555610d92565b82800160010185558215610d92579182015b82811115610d91578251825591602001919060010190610d76565b5b509050610d9f9190610e04565b5090565b508054610daf90611637565b6000825580601f10610dc15750610de0565b601f016020900490600052602060002090810190610ddf9190610e04565b5b50565b60405180606001604052806000815260200160608152602001606081525090565b5b80821115610e1d576000816000905550600101610e05565b5090565b6000610e34610e2f846114e0565b6114af565b905082815260208101848484011115610e4c57600080fd5b610e578482856115cb565b509392505050565b600082601f830112610e7057600080fd5b8135610e80848260208601610e21565b91505092915050565b600081359050610e9881611750565b92915050565b60008060408385031215610eb157600080fd5b600083013567ffffffffffffffff811115610ecb57600080fd5b610ed785828601610e5f565b925050602083013567ffffffffffffffff811115610ef457600080fd5b610f0085828601610e5f565b9150509250929050565b600060208284031215610f1c57600080fd5b6000610f2a84828501610e89565b91505092915050565b60008060408385031215610f4657600080fd5b6000610f5485828601610e89565b925050602083013567ffffffffffffffff811115610f7157600080fd5b610f7d85828601610e5f565b9150509250929050565b600080600060608486031215610f9c57600080fd5b6000610faa86828701610e89565b935050602084013567ffffffffffffffff811115610fc757600080fd5b610fd386828701610e5f565b925050604084013567ffffffffffffffff811115610ff057600080fd5b610ffc86828701610e5f565b9150509250925092565b6000611012838361128d565b905092915050565b600061102582611520565b61102f8185611543565b93508360208202850161104185611510565b8060005b8581101561107d578484038952815161105e8582611006565b945061106983611536565b925060208a01995050600181019050611045565b50829750879550505050505092915050565b611098816115b5565b82525050565b60006110a98261152b565b6110b38185611554565b93506110c38185602086016115da565b6110cc8161173f565b840191505092915050565b60006110e28261152b565b6110ec8185611565565b93506110fc8185602086016115da565b6111058161173f565b840191505092915050565b600061111b8261152b565b6111258185611576565b93506111358185602086016115da565b80840191505092915050565b600061114e603a83611565565b91507f54776565742064656c6574696f6e207265717565737473206d75737420636f6d60008301527f652066726f6d20746865206f726967696e616c20617574686f720000000000006020830152604082019050919050565b60006111b4603383611565565b91507f547765657420757064617465207265717565737473206d75737420636f6d652060008301527f746865206f726967696e616c20617574686f72000000000000000000000000006020830152604082019050919050565b600061121a601083611565565b91507f496e76616c6964207477656574204944000000000000000000000000000000006000830152602082019050919050565b600061125a601683611565565b91507f547765657420686173206265656e2064656c65746564000000000000000000006000830152602082019050919050565b60006060830160008301516112a5600086018261133b565b50602083015184820360208601526112bd828261109e565b915050604083015184820360408601526112d7828261109e565b9150508091505092915050565b60006060830160008301516112fc600086018261133b565b5060208301518482036020860152611314828261109e565b9150506040830151848203604086015261132e828261109e565b9150508091505092915050565b611344816115c1565b82525050565b611353816115c1565b82525050565b60006113658284611110565b915081905092915050565b6000602082019050818103600083015261138a818461101a565b905092915050565b60006020820190506113a7600083018461108f565b92915050565b600060208201905081810360008301526113c681611141565b9050919050565b600060208201905081810360008301526113e6816111a7565b9050919050565b600060208201905081810360008301526114068161120d565b9050919050565b600060208201905081810360008301526114268161124d565b9050919050565b6000602082019050818103600083015261144781846112e4565b905092915050565b6000602082019050611464600083018461134a565b92915050565b600060608201905061147f600083018661134a565b818103602083015261149181856110d7565b905081810360408301526114a581846110d7565b9050949350505050565b6000604051905081810181811067ffffffffffffffff821117156114d6576114d5611710565b5b8060405250919050565b600067ffffffffffffffff8211156114fb576114fa611710565b5b601f19601f8301169050602081019050919050565b6000819050602082019050919050565b600081519050919050565b600081519050919050565b6000602082019050919050565b600082825260208201905092915050565b600082825260208201905092915050565b600082825260208201905092915050565b600081905092915050565b600061158c826115c1565b9150611597836115c1565b9250828210156115aa576115a96116b2565b5b828203905092915050565b60008115159050919050565b6000819050919050565b82818337600083830152505050565b60005b838110156115f85780820151818401526020810190506115dd565b83811115611607576000848401525b50505050565b6000611618826115c1565b9150600082141561162c5761162b6116b2565b5b600182039050919050565b6000600282049050600182168061164f57607f821691505b60208210811415611663576116626116e1565b5b50919050565b6000611674826115c1565b91507fffffffffffffffffffffffffffffffffffffffffffffffffffffffffffffffff8214156116a7576116a66116b2565b5b600182019050919050565b7f4e487b7100000000000000000000000000000000000000000000000000000000600052601160045260246000fd5b7f4e487b7100000000000000000000000000000000000000000000000000000000600052602260045260246000fd5b7f4e487b7100000000000000000000000000000000000000000000000000000000600052604160045260246000fd5b6000601f19601f8301169050919050565b611759816115c1565b811461176457600080fd5b5056fea26469706673582212201f20556cc13bddcde4170a3ae626ab65181ac4dce42417aa3ccbe21f4477692a64736f6c63430008000033",
  "immutableReferences": {},
  "source": "// SPDX-License-Identifier: MIT\r\npragma solidity >=0.4.22 <0.9.0;\r\npragma experimental ABIEncoderV2;\r\n\r\ncontract TweetFactory {\r\n    event TweetAdded(uint tweetId, string message, string author);\r\n    event TweetUpdated(uint tweetId, string message, string author);\r\n    event TweetDeleted(uint oldTweetId);\r\n\r\n    struct Tweet {\r\n        uint id;\r\n        string message;\r\n        string author;\r\n    }\r\n\r\n    mapping(uint => Tweet) public tweets;\r\n    uint nextTweetId = 1;\r\n    uint tweetCount = 0;\r\n\r\n    // This function has been taken from https://ethereum.stackexchange.com/a/30914\r\n    function compareStrings(string memory a, string memory b) public pure returns (bool) {\r\n        return (keccak256(abi.encodePacked((a))) == keccak256(abi.encodePacked((b))));\r\n    }\r\n\r\n    function requireValidTweetId(uint id) public view {\r\n        require(nextTweetId > id, \"Invalid tweet ID\");\r\n    }\r\n\r\n    function createTweet(string memory _message, string memory _author) public {\r\n        uint id = nextTweetId++;\r\n        tweets[id] = Tweet(id, _message, _author);\r\n        tweetCount++;\r\n        emit TweetAdded(id, _message, _author);\r\n    }\r\n\r\n    function getTweet(uint id) public view returns (Tweet memory) {\r\n        requireValidTweetId(id);\r\n        Tweet memory retrievedTweet = tweets[id];\r\n        require(retrievedTweet.id > 0, \"Tweet has been deleted\");\r\n        return retrievedTweet;\r\n    }\r\n\r\n\r\n    function getTweets() public view returns (Tweet[] memory) {\r\n        Tweet[] memory timeline = new Tweet[](tweetCount);\r\n        uint idx = 0;\r\n\r\n        for(uint i = nextTweetId - 1; i > 0; i--) {\r\n            Tweet memory curTweet = tweets[i];\r\n\r\n            // Means it's not deleted\r\n            if (curTweet.id != 0) {\r\n                timeline[idx++] = curTweet;\r\n            }\r\n        }\r\n\r\n        return timeline;\r\n    }\r\n\r\n    function deleteTweet(uint id, string memory _author) public {\r\n       requireValidTweetId(id);\r\n        Tweet memory retrievedTweet = tweets[id];\r\n        require(compareStrings(retrievedTweet.author, _author), \"Tweet deletion requests must come from the original author\");\r\n        delete tweets[id];\r\n        tweetCount--;\r\n        emit TweetDeleted(id);\r\n    }\r\n\r\n    function updateTweet(uint id, string memory _message, string memory _author) public {\r\n        requireValidTweetId(id);\r\n        Tweet memory oldTweet = tweets[id];\r\n        require(compareStrings(oldTweet.author, _author), \"Tweet update requests must come the original author\");\r\n        Tweet memory newTweet = Tweet(id, _message, _author);\r\n        tweets[id] = newTweet;\r\n        emit TweetUpdated(id, _message, _author);\r\n    }\r\n}",
  "sourcePath": "/usr/src/app/contracts/TweetFactory.sol",
  "compiler": {
    "name": "solc",
    "version": "0.8.0+commit.c7dfd78e.Emscripten.clang"
  },
  "schemaVersion": "3.3.3",
  "updatedAt": "2021-02-19T13:14:38.453Z",
  "networkType": "ethereum",
  "devdoc": {
    "kind": "dev",
    "methods": {},
    "version": 1
  },
  "userdoc": {
    "kind": "user",
    "methods": {},
    "version": 1
  }
}